{
    "contractName": "Message",
    "abi": [
        {
            "inputs": [],
            "stateMutability": "nonpayable",
            "type": "constructor"
        },
        {
            "inputs": [],
            "name": "getTotalMessages",
            "outputs": [
                {
                    "internalType": "uint256",
                    "name": "",
                    "type": "uint256"
                }
            ],
            "stateMutability": "view",
            "type": "function"
        },
        {
            "inputs": [],
            "name": "message",
            "outputs": [],
            "stateMutability": "nonpayable",
            "type": "function"
        }
    ],
    "bytecode": "608060405234801561001057600080fd5b506100596040518060400160405280601581526020017f49276d206120536d61727420436f6e747261637421000000000000000000000081525061005e60201b6100f31760201c565b61011e565b6100a58160405160240161007291906100c9565b60408051601f198184030181529190526020810180516001600160e01b0390811663104c13eb60e21b179091526100a816565b50565b80516a636f6e736f6c652e6c6f67602083016000808483855afa5050505050565b600060208083528351808285015260005b818110156100f6578581018301518582016040015282016100da565b81811115610108576000604083870101525b50601f01601f1916929092016040019392505050565b6102f38061012d6000396000f3fe608060405234801561001057600080fd5b50600436106100365760003560e01c8063147e91081461003b578063e21f37ce14610055575b600080fd5b61004361005f565b60405190815260200160405180910390f35b61005d6100a9565b005b60006100a26040518060400160405280601781526020017f5765206861766520256420746f74616c20776176657321000000000000000000815250600054610139565b5060005490565b60016000808282546100bb91906101e4565b909155505060408051808201909152601081526f257320686173206d657373616765642160801b60208201526100f19033610182565b565b610136816040516024016101079190610257565b60408051601f198184030181529190526020810180516001600160e01b031663104c13eb60e21b1790526101c3565b50565b61017e828260405160240161014f929190610271565b60408051601f198184030181529190526020810180516001600160e01b03166309710a9d60e41b1790526101c3565b5050565b61017e8282604051602401610198929190610293565b60408051601f198184030181529190526020810180516001600160e01b031663319af33360e01b1790525b80516a636f6e736f6c652e6c6f67602083016000808483855afa5050505050565b6000821982111561020557634e487b7160e01b600052601160045260246000fd5b500190565b6000815180845260005b8181101561023057602081850181015186830182015201610214565b81811115610242576000602083870101525b50601f01601f19169290920160200192915050565b60208152600061026a602083018461020a565b9392505050565b604081526000610284604083018561020a565b90508260208301529392505050565b6040815260006102a6604083018561020a565b905060018060a01b0383166020830152939250505056fea2646970667358221220abc8706575d19187b424581ed5f54bf785ee923332f3f67e0658989d57174ed264736f6c634300080b0033",
    "sourcePath": "d:/Development/Portfolio Projects/desocial/contracts/Message.sol",
    "compiler": {
        "name": "solc",
        "version": "0.8.11+commit.d7f03943"
    },
    "functionHashes": {
        "getTotalMessages()": "147e9108",
        "message()": "e21f37ce"
    },
    "gasEstimates": {
        "creation": {
            "codeDepositCost": "151000",
            "executionCost": "infinite",
            "totalCost": "infinite"
        },
        "external": {
            "getTotalMessages()": "infinite",
            "message()": "infinite"
        }
    }
}